{"abi":[{"type":"constructor","inputs":[{"name":"maxSupply_","type":"uint256","internalType":"uint256"},{"name":"owner_","type":"address","internalType":"address"}],"stateMutability":"nonpayable"},{"type":"function","name":"DOMAIN_SEPARATOR","inputs":[],"outputs":[{"name":"","type":"bytes32","internalType":"bytes32"}],"stateMutability":"view"},{"type":"function","name":"MAX_SUPPLY","inputs":[],"outputs":[{"name":"","type":"uint256","internalType":"uint256"}],"stateMutability":"view"},{"type":"function","name":"allowance","inputs":[{"name":"owner","type":"address","internalType":"address"},{"name":"spender","type":"address","internalType":"address"}],"outputs":[{"name":"","type":"uint256","internalType":"uint256"}],"stateMutability":"view"},{"type":"function","name":"approve","inputs":[{"name":"spender","type":"address","internalType":"address"},{"name":"value","type":"uint256","internalType":"uint256"}],"outputs":[{"name":"","type":"bool","internalType":"bool"}],"stateMutability":"nonpayable"},{"type":"function","name":"balanceOf","inputs":[{"name":"account","type":"address","internalType":"address"}],"outputs":[{"name":"","type":"uint256","internalType":"uint256"}],"stateMutability":"view"},{"type":"function","name":"burn","inputs":[{"name":"amount","type":"uint256","internalType":"uint256"}],"outputs":[],"stateMutability":"nonpayable"},{"type":"function","name":"burnFrom","inputs":[{"name":"from","type":"address","internalType":"address"},{"name":"amount","type":"uint256","internalType":"uint256"}],"outputs":[],"stateMutability":"nonpayable"},{"type":"function","name":"decimals","inputs":[],"outputs":[{"name":"","type":"uint8","internalType":"uint8"}],"stateMutability":"view"},{"type":"function","name":"eip712Domain","inputs":[],"outputs":[{"name":"fields","type":"bytes1","internalType":"bytes1"},{"name":"name","type":"string","internalType":"string"},{"name":"version","type":"string","internalType":"string"},{"name":"chainId","type":"uint256","internalType":"uint256"},{"name":"verifyingContract","type":"address","internalType":"address"},{"name":"salt","type":"bytes32","internalType":"bytes32"},{"name":"extensions","type":"uint256[]","internalType":"uint256[]"}],"stateMutability":"view"},{"type":"function","name":"mint","inputs":[{"name":"to","type":"address","internalType":"address"},{"name":"amount","type":"uint256","internalType":"uint256"}],"outputs":[],"stateMutability":"nonpayable"},{"type":"function","name":"name","inputs":[],"outputs":[{"name":"","type":"string","internalType":"string"}],"stateMutability":"view"},{"type":"function","name":"nonces","inputs":[{"name":"owner","type":"address","internalType":"address"}],"outputs":[{"name":"","type":"uint256","internalType":"uint256"}],"stateMutability":"view"},{"type":"function","name":"owner","inputs":[],"outputs":[{"name":"","type":"address","internalType":"address"}],"stateMutability":"view"},{"type":"function","name":"permit","inputs":[{"name":"owner","type":"address","internalType":"address"},{"name":"spender","type":"address","internalType":"address"},{"name":"value","type":"uint256","internalType":"uint256"},{"name":"deadline","type":"uint256","internalType":"uint256"},{"name":"v","type":"uint8","internalType":"uint8"},{"name":"r","type":"bytes32","internalType":"bytes32"},{"name":"s","type":"bytes32","internalType":"bytes32"}],"outputs":[],"stateMutability":"nonpayable"},{"type":"function","name":"renounceOwnership","inputs":[],"outputs":[],"stateMutability":"nonpayable"},{"type":"function","name":"symbol","inputs":[],"outputs":[{"name":"","type":"string","internalType":"string"}],"stateMutability":"view"},{"type":"function","name":"totalMinted","inputs":[],"outputs":[{"name":"","type":"uint256","internalType":"uint256"}],"stateMutability":"view"},{"type":"function","name":"totalSupply","inputs":[],"outputs":[{"name":"","type":"uint256","internalType":"uint256"}],"stateMutability":"view"},{"type":"function","name":"transfer","inputs":[{"name":"to","type":"address","internalType":"address"},{"name":"value","type":"uint256","internalType":"uint256"}],"outputs":[{"name":"","type":"bool","internalType":"bool"}],"stateMutability":"nonpayable"},{"type":"function","name":"transferFrom","inputs":[{"name":"from","type":"address","internalType":"address"},{"name":"to","type":"address","internalType":"address"},{"name":"value","type":"uint256","internalType":"uint256"}],"outputs":[{"name":"","type":"bool","internalType":"bool"}],"stateMutability":"nonpayable"},{"type":"function","name":"transferOwnership","inputs":[{"name":"newOwner","type":"address","internalType":"address"}],"outputs":[],"stateMutability":"nonpayable"},{"type":"event","name":"Approval","inputs":[{"name":"owner","type":"address","indexed":true,"internalType":"address"},{"name":"spender","type":"address","indexed":true,"internalType":"address"},{"name":"value","type":"uint256","indexed":false,"internalType":"uint256"}],"anonymous":false},{"type":"event","name":"Burned","inputs":[{"name":"from","type":"address","indexed":true,"internalType":"address"},{"name":"amount","type":"uint256","indexed":false,"internalType":"uint256"}],"anonymous":false},{"type":"event","name":"EIP712DomainChanged","inputs":[],"anonymous":false},{"type":"event","name":"Minted","inputs":[{"name":"to","type":"address","indexed":true,"internalType":"address"},{"name":"amount","type":"uint256","indexed":false,"internalType":"uint256"}],"anonymous":false},{"type":"event","name":"OwnershipTransferred","inputs":[{"name":"previousOwner","type":"address","indexed":true,"internalType":"address"},{"name":"newOwner","type":"address","indexed":true,"internalType":"address"}],"anonymous":false},{"type":"event","name":"Transfer","inputs":[{"name":"from","type":"address","indexed":true,"internalType":"address"},{"name":"to","type":"address","indexed":true,"internalType":"address"},{"name":"value","type":"uint256","indexed":false,"internalType":"uint256"}],"anonymous":false},{"type":"error","name":"ECDSAInvalidSignature","inputs":[]},{"type":"error","name":"ECDSAInvalidSignatureLength","inputs":[{"name":"length","type":"uint256","internalType":"uint256"}]},{"type":"error","name":"ECDSAInvalidSignatureS","inputs":[{"name":"s","type":"bytes32","internalType":"bytes32"}]},{"type":"error","name":"ERC20InsufficientAllowance","inputs":[{"name":"spender","type":"address","internalType":"address"},{"name":"allowance","type":"uint256","internalType":"uint256"},{"name":"needed","type":"uint256","internalType":"uint256"}]},{"type":"error","name":"ERC20InsufficientBalance","inputs":[{"name":"sender","type":"address","internalType":"address"},{"name":"balance","type":"uint256","internalType":"uint256"},{"name":"needed","type":"uint256","internalType":"uint256"}]},{"type":"error","name":"ERC20InvalidApprover","inputs":[{"name":"approver","type":"address","internalType":"address"}]},{"type":"error","name":"ERC20InvalidReceiver","inputs":[{"name":"receiver","type":"address","internalType":"address"}]},{"type":"error","name":"ERC20InvalidSender","inputs":[{"name":"sender","type":"address","internalType":"address"}]},{"type":"error","name":"ERC20InvalidSpender","inputs":[{"name":"spender","type":"address","internalType":"address"}]},{"type":"error","name":"ERC2612ExpiredSignature","inputs":[{"name":"deadline","type":"uint256","internalType":"uint256"}]},{"type":"error","name":"ERC2612InvalidSigner","inputs":[{"name":"signer","type":"address","internalType":"address"},{"name":"owner","type":"address","internalType":"address"}]},{"type":"error","name":"InvalidAccountNonce","inputs":[{"name":"account","type":"address","internalType":"address"},{"name":"currentNonce","type":"uint256","internalType":"uint256"}]},{"type":"error","name":"InvalidShortString","inputs":[]},{"type":"error","name":"OwnableInvalidOwner","inputs":[{"name":"owner","type":"address","internalType":"address"}]},{"type":"error","name":"OwnableUnauthorizedAccount","inputs":[{"name":"account","type":"address","internalType":"address"}]},{"type":"error","name":"StringTooLong","inputs":[{"name":"str","type":"string","internalType":"string"}]}],"bytecode":{"object":"0x61018060405234801562000011575f80fd5b5060405162001f7e38038062001f7e8339810160408190526200003491620002f3565b8060405180604001604052806007815260200166041494f323033360cc1b81525080604051806040016040528060018152602001603160f81b81525060405180604001604052806007815260200166041494f323033360cc1b8152506040518060400160405280600381526020016241494f60e81b8152508160039081620000bd9190620003cd565b506004620000cc8282620003cd565b50620000de9150839050600562000228565b61012052620000ef81600662000228565b61014052815160208084019190912060e052815190820120610100524660a0526200017c60e05161010051604080517f8b73c3c69bb8fe3d512ecc4cf759cc79239f7b179b0ffacaa9a75d522b39400f60208201529081019290925260608201524660808201523060a08201525f9060c00160405160208183030381529060405280519060200120905090565b60805250503060c052506001600160a01b038116620001b557604051631e4fbdf760e01b81525f60048201526024015b60405180910390fd5b620001c08162000260565b50815f036200021d5760405162461bcd60e51b815260206004820152602260248201527f41494f45524332303a206d6178537570706c792063616e6e6f74206265207a65604482015261726f60f01b6064820152608401620001ac565b50610160526200050b565b5f60208351101562000247576200023f83620002b1565b90506200025a565b81620002548482620003cd565b5060ff90505b92915050565b600880546001600160a01b038381166001600160a01b0319831681179093556040519116919082907f8be0079c531659141344cd1fd0a4f28419497f9722a3daafe3b4186f6b6457e0905f90a35050565b5f80829050601f81511115620002de578260405163305a27a960e01b8152600401620001ac919062000499565b8051620002eb82620004e7565b179392505050565b5f806040838503121562000305575f80fd5b825160208401519092506001600160a01b038116811462000324575f80fd5b809150509250929050565b634e487b7160e01b5f52604160045260245ffd5b600181811c908216806200035857607f821691505b6020821081036200037757634e487b7160e01b5f52602260045260245ffd5b50919050565b601f821115620003c857805f5260205f20601f840160051c81016020851015620003a45750805b601f840160051c820191505b81811015620003c5575f8155600101620003b0565b50505b505050565b81516001600160401b03811115620003e957620003e96200032f565b6200040181620003fa845462000343565b846200037d565b602080601f83116001811462000437575f84156200041f5750858301515b5f19600386901b1c1916600185901b17855562000491565b5f85815260208120601f198616915b82811015620004675788860151825594840194600190910190840162000446565b50858210156200048557878501515f19600388901b60f8161c191681555b505060018460011b0185555b505050505050565b5f602080835283518060208501525f5b81811015620004c757858101830151858201604001528201620004a9565b505f604082860101526040601f19601f8301168501019250505092915050565b8051602080830151919081101562000377575f1960209190910360031b1b16919050565b60805160a05160c05160e05161010051610120516101405161016051611a106200056e5f395f81816101ec015261057901525f610f9201525f610f6501525f610d8d01525f610d6501525f610cc001525f610cea01525f610d140152611a105ff3fe608060405234801561000f575f80fd5b506004361061016e575f3560e01c8063715018a6116100d257806395d89b4111610088578063d505accf11610063578063d505accf14610308578063dd62ed3e1461031b578063f2fde38b14610360575f80fd5b806395d89b41146102e4578063a2309ff8146102ec578063a9059cbb146102f5575f80fd5b80637ecebe00116100b85780637ecebe001461028e57806384b0196e146102a15780638da5cb5b146102bc575f80fd5b8063715018a61461027357806379cc67901461027b575f80fd5b806332cb6b0c1161012757806340c10f191161010d57806340c10f191461021657806342966c681461022b57806370a082311461023e575f80fd5b806332cb6b0c146101e75780633644e5151461020e575f80fd5b806318160ddd1161015757806318160ddd146101b357806323b872dd146101c5578063313ce567146101d8575f80fd5b806306fdde0314610172578063095ea7b314610190575b5f80fd5b61017a610373565b60405161018791906116f4565b60405180910390f35b6101a361019e366004611735565b610403565b6040519015158152602001610187565b6002545b604051908152602001610187565b6101a36101d336600461175d565b61041c565b60405160128152602001610187565b6101b77f000000000000000000000000000000000000000000000000000000000000000081565b6101b761043f565b610229610224366004611735565b61044d565b005b610229610239366004611796565b61068b565b6101b761024c3660046117ad565b73ffffffffffffffffffffffffffffffffffffffff165f9081526020819052604090205490565b610229610736565b610229610289366004611735565b610749565b6101b761029c3660046117ad565b6108be565b6102a96108e8565b60405161018797969594939291906117c6565b60085460405173ffffffffffffffffffffffffffffffffffffffff9091168152602001610187565b61017a610946565b6101b760095481565b6101a3610303366004611735565b610955565b610229610316366004611886565b610962565b6101b76103293660046118f3565b73ffffffffffffffffffffffffffffffffffffffff9182165f90815260016020908152604080832093909416825291909152205490565b61022961036e3660046117ad565b610b0b565b60606003805461038290611924565b80601f01602080910402602001604051908101604052809291908181526020018280546103ae90611924565b80156103f95780601f106103d0576101008083540402835291602001916103f9565b820191905f5260205f20905b8154815290600101906020018083116103dc57829003601f168201915b5050505050905090565b5f33610410818585610b1f565b60019150505b92915050565b5f33610429858285610b31565b610434858585610bfe565b506001949350505050565b5f610448610ca7565b905090565b610455610ddd565b73ffffffffffffffffffffffffffffffffffffffff82166104fd576040517f08c379a000000000000000000000000000000000000000000000000000000000815260206004820152602560248201527f41494f45524332303a2063616e6e6f74206d696e7420746f207a65726f20616460448201527f647265737300000000000000000000000000000000000000000000000000000060648201526084015b60405180910390fd5b805f03610566576040517f08c379a000000000000000000000000000000000000000000000000000000000815260206004820152601f60248201527f41494f45524332303a20616d6f756e742063616e6e6f74206265207a65726f0060448201526064016104f4565b5f816009546105759190611975565b90507f0000000000000000000000000000000000000000000000000000000000000000811115610627576040517f08c379a000000000000000000000000000000000000000000000000000000000815260206004820152602660248201527f41494f45524332303a206d696e7420776f756c6420657863656564204d41585f60448201527f535550504c59000000000000000000000000000000000000000000000000000060648201526084016104f4565b60098190556106368383610e30565b8273ffffffffffffffffffffffffffffffffffffffff167f30385c845b448a36257a6a1716e6ad2e1bc2cbe333cde1e69fe849ad6511adfe8360405161067e91815260200190565b60405180910390a2505050565b805f036106f4576040517f08c379a000000000000000000000000000000000000000000000000000000000815260206004820152601f60248201527f41494f45524332303a20616d6f756e742063616e6e6f74206265207a65726f0060448201526064016104f4565b6106fe3382610e8e565b60405181815233907f696de425f79f4a40bc6d2122ca50507f0efbeabbff86a84871b7196ab8ea8df79060200160405180910390a250565b61073e610ddd565b6107475f610ee8565b565b73ffffffffffffffffffffffffffffffffffffffff82166107ec576040517f08c379a000000000000000000000000000000000000000000000000000000000815260206004820152602760248201527f41494f45524332303a2063616e6e6f74206275726e2066726f6d207a65726f2060448201527f616464726573730000000000000000000000000000000000000000000000000060648201526084016104f4565b805f03610855576040517f08c379a000000000000000000000000000000000000000000000000000000000815260206004820152601f60248201527f41494f45524332303a20616d6f756e742063616e6e6f74206265207a65726f0060448201526064016104f4565b610860823383610b31565b61086a8282610e8e565b8173ffffffffffffffffffffffffffffffffffffffff167f696de425f79f4a40bc6d2122ca50507f0efbeabbff86a84871b7196ab8ea8df7826040516108b291815260200190565b60405180910390a25050565b73ffffffffffffffffffffffffffffffffffffffff81165f90815260076020526040812054610416565b5f6060805f805f60606108f9610f5e565b610901610f8b565b604080515f808252602082019092527f0f000000000000000000000000000000000000000000000000000000000000009b939a50919850469750309650945092509050565b60606004805461038290611924565b5f33610410818585610bfe565b8342111561099f576040517f62791302000000000000000000000000000000000000000000000000000000008152600481018590526024016104f4565b5f7f6e71edae12b1b97f4d1f60370fef10105fa2faae0126114a169c64845d6126c98888886109f78c73ffffffffffffffffffffffffffffffffffffffff165f90815260076020526040902080546001810190915590565b60408051602081019690965273ffffffffffffffffffffffffffffffffffffffff94851690860152929091166060840152608083015260a082015260c0810186905260e0016040516020818303038152906040528051906020012090505f610a5e82610fb8565b90505f610a6d82878787610fff565b90508973ffffffffffffffffffffffffffffffffffffffff168173ffffffffffffffffffffffffffffffffffffffff1614610af4576040517f4b800e4600000000000000000000000000000000000000000000000000000000815273ffffffffffffffffffffffffffffffffffffffff80831660048301528b1660248201526044016104f4565b610aff8a8a8a610b1f565b50505050505050505050565b610b13610ddd565b610b1c8161102b565b50565b610b2c838383600161108b565b505050565b73ffffffffffffffffffffffffffffffffffffffff8381165f908152600160209081526040808320938616835292905220547fffffffffffffffffffffffffffffffffffffffffffffffffffffffffffffffff8114610bf85781811015610bea576040517ffb8f41b200000000000000000000000000000000000000000000000000000000815273ffffffffffffffffffffffffffffffffffffffff8416600482015260248101829052604481018390526064016104f4565b610bf884848484035f61108b565b50505050565b73ffffffffffffffffffffffffffffffffffffffff8316610c4d576040517f96c6fd1e0000000000000000000000000000000000000000000000000000000081525f60048201526024016104f4565b73ffffffffffffffffffffffffffffffffffffffff8216610c9c576040517fec442f050000000000000000000000000000000000000000000000000000000081525f60048201526024016104f4565b610b2c8383836111d0565b5f3073ffffffffffffffffffffffffffffffffffffffff7f000000000000000000000000000000000000000000000000000000000000000016148015610d0c57507f000000000000000000000000000000000000000000000000000000000000000046145b15610d3657507f000000000000000000000000000000000000000000000000000000000000000090565b610448604080517f8b73c3c69bb8fe3d512ecc4cf759cc79239f7b179b0ffacaa9a75d522b39400f60208201527f0000000000000000000000000000000000000000000000000000000000000000918101919091527f000000000000000000000000000000000000000000000000000000000000000060608201524660808201523060a08201525f9060c00160405160208183030381529060405280519060200120905090565b60085473ffffffffffffffffffffffffffffffffffffffff163314610747576040517f118cdaa70000000000000000000000000000000000000000000000000000000081523360048201526024016104f4565b73ffffffffffffffffffffffffffffffffffffffff8216610e7f576040517fec442f050000000000000000000000000000000000000000000000000000000081525f60048201526024016104f4565b610e8a5f83836111d0565b5050565b73ffffffffffffffffffffffffffffffffffffffff8216610edd576040517f96c6fd1e0000000000000000000000000000000000000000000000000000000081525f60048201526024016104f4565b610e8a825f836111d0565b6008805473ffffffffffffffffffffffffffffffffffffffff8381167fffffffffffffffffffffffff0000000000000000000000000000000000000000831681179093556040519116919082907f8be0079c531659141344cd1fd0a4f28419497f9722a3daafe3b4186f6b6457e0905f90a35050565b60606104487f00000000000000000000000000000000000000000000000000000000000000006005611377565b60606104487f00000000000000000000000000000000000000000000000000000000000000006006611377565b5f610416610fc4610ca7565b836040517f19010000000000000000000000000000000000000000000000000000000000008152600281019290925260228201526042902090565b5f805f8061100f88888888611420565b92509250925061101f8282611513565b50909695505050505050565b611033610ddd565b73ffffffffffffffffffffffffffffffffffffffff8116611082576040517f1e4fbdf70000000000000000000000000000000000000000000000000000000081525f60048201526024016104f4565b610b1c81610ee8565b73ffffffffffffffffffffffffffffffffffffffff84166110da576040517fe602df050000000000000000000000000000000000000000000000000000000081525f60048201526024016104f4565b73ffffffffffffffffffffffffffffffffffffffff8316611129576040517f94280d620000000000000000000000000000000000000000000000000000000081525f60048201526024016104f4565b73ffffffffffffffffffffffffffffffffffffffff8085165f9081526001602090815260408083209387168352929052208290558015610bf8578273ffffffffffffffffffffffffffffffffffffffff168473ffffffffffffffffffffffffffffffffffffffff167f8c5be1e5ebec7d5bd14f71427d1e84f3dd0314c0f7b2291e5b200ac8c7c3b925846040516111c291815260200190565b60405180910390a350505050565b73ffffffffffffffffffffffffffffffffffffffff8316611207578060025f8282546111fc9190611975565b909155506112b79050565b73ffffffffffffffffffffffffffffffffffffffff83165f908152602081905260409020548181101561128c576040517fe450d38c00000000000000000000000000000000000000000000000000000000815273ffffffffffffffffffffffffffffffffffffffff8516600482015260248101829052604481018390526064016104f4565b73ffffffffffffffffffffffffffffffffffffffff84165f9081526020819052604090209082900390555b73ffffffffffffffffffffffffffffffffffffffff82166112e05760028054829003905561130b565b73ffffffffffffffffffffffffffffffffffffffff82165f9081526020819052604090208054820190555b8173ffffffffffffffffffffffffffffffffffffffff168373ffffffffffffffffffffffffffffffffffffffff167fddf252ad1be2c89b69c2b068fc378daa952ba7f163c4a11628f55a4df523b3ef8360405161136a91815260200190565b60405180910390a3505050565b606060ff83146113915761138a83611616565b9050610416565b81805461139d90611924565b80601f01602080910402602001604051908101604052809291908181526020018280546113c990611924565b80156114145780601f106113eb57610100808354040283529160200191611414565b820191905f5260205f20905b8154815290600101906020018083116113f757829003601f168201915b50505050509050610416565b5f80807f7fffffffffffffffffffffffffffffff5d576e7357a4501ddfe92f46681b20a084111561145957505f91506003905082611509565b604080515f808252602082018084528a905260ff891692820192909252606081018790526080810186905260019060a0016020604051602081039080840390855afa1580156114aa573d5f803e3d5ffd5b50506040517fffffffffffffffffffffffffffffffffffffffffffffffffffffffffffffffe0015191505073ffffffffffffffffffffffffffffffffffffffff811661150057505f925060019150829050611509565b92505f91508190505b9450945094915050565b5f826003811115611526576115266119ad565b0361152f575050565b6001826003811115611543576115436119ad565b0361157a576040517ff645eedf00000000000000000000000000000000000000000000000000000000815260040160405180910390fd5b600282600381111561158e5761158e6119ad565b036115c8576040517ffce698f7000000000000000000000000000000000000000000000000000000008152600481018290526024016104f4565b60038260038111156115dc576115dc6119ad565b03610e8a576040517fd78bce0c000000000000000000000000000000000000000000000000000000008152600481018290526024016104f4565b60605f61162283611653565b6040805160208082528183019092529192505f91906020820181803683375050509182525060208101929092525090565b5f60ff8216601f811115610416576040517fb3512b0c00000000000000000000000000000000000000000000000000000000815260040160405180910390fd5b5f81518084525f5b818110156116b75760208185018101518683018201520161169b565b505f6020828601015260207fffffffffffffffffffffffffffffffffffffffffffffffffffffffffffffffe0601f83011685010191505092915050565b602081525f6117066020830184611693565b9392505050565b803573ffffffffffffffffffffffffffffffffffffffff81168114611730575f80fd5b919050565b5f8060408385031215611746575f80fd5b61174f8361170d565b946020939093013593505050565b5f805f6060848603121561176f575f80fd5b6117788461170d565b92506117866020850161170d565b9150604084013590509250925092565b5f602082840312156117a6575f80fd5b5035919050565b5f602082840312156117bd575f80fd5b6117068261170d565b7fff00000000000000000000000000000000000000000000000000000000000000881681525f602060e0602084015261180260e084018a611693565b8381036040850152611814818a611693565b6060850189905273ffffffffffffffffffffffffffffffffffffffff8816608086015260a0850187905284810360c0860152855180825260208088019350909101905f5b8181101561187457835183529284019291840191600101611858565b50909c9b505050505050505050505050565b5f805f805f805f60e0888a03121561189c575f80fd5b6118a58861170d565b96506118b36020890161170d565b95506040880135945060608801359350608088013560ff811681146118d6575f80fd5b9699959850939692959460a0840135945060c09093013592915050565b5f8060408385031215611904575f80fd5b61190d8361170d565b915061191b6020840161170d565b90509250929050565b600181811c9082168061193857607f821691505b60208210810361196f577f4e487b71000000000000000000000000000000000000000000000000000000005f52602260045260245ffd5b50919050565b80820180821115610416577f4e487b71000000000000000000000000000000000000000000000000000000005f52601160045260245ffd5b7f4e487b71000000000000000000000000000000000000000000000000000000005f52602160045260245ffdfea26469706673582212207c4465faf5dbee68491229344896ffc648471ba127f8a51b1147948d03fe3c0064736f6c63430008180033","linkReferences":{}},"methodIdentifiers":{"DOMAIN_SEPARATOR()":"3644e515","MAX_SUPPLY()":"32cb6b0c","allowance(address,address)":"dd62ed3e","approve(address,uint256)":"095ea7b3","balanceOf(address)":"70a08231","burn(uint256)":"42966c68","burnFrom(address,uint256)":"79cc6790","decimals()":"313ce567","eip712Domain()":"84b0196e","mint(address,uint256)":"40c10f19","name()":"06fdde03","nonces(address)":"7ecebe00","owner()":"8da5cb5b","permit(address,address,uint256,uint256,uint8,bytes32,bytes32)":"d505accf","renounceOwnership()":"715018a6","symbol()":"95d89b41","totalMinted()":"a2309ff8","totalSupply()":"18160ddd","transfer(address,uint256)":"a9059cbb","transferFrom(address,address,uint256)":"23b872dd","transferOwnership(address)":"f2fde38b"},"id":53}