{"abi":[{"type":"constructor","inputs":[{"name":"projectWallet_","type":"address","internalType":"address"},{"name":"feeWei_","type":"uint256","internalType":"uint256"},{"name":"owner_","type":"address","internalType":"address"}],"stateMutability":"nonpayable"},{"type":"receive","stateMutability":"payable"},{"type":"function","name":"DEFAULT_ADMIN_ROLE","inputs":[],"outputs":[{"name":"","type":"bytes32","internalType":"bytes32"}],"stateMutability":"view"},{"type":"function","name":"PARAM_SETTER_ROLE","inputs":[],"outputs":[{"name":"","type":"bytes32","internalType":"bytes32"}],"stateMutability":"view"},{"type":"function","name":"collectEth","inputs":[],"outputs":[],"stateMutability":"payable"},{"type":"function","name":"enableGovernanceMode","inputs":[{"name":"admin","type":"address","internalType":"address"},{"name":"paramSetter","type":"address","internalType":"address"}],"outputs":[],"stateMutability":"nonpayable"},{"type":"function","name":"feeWei","inputs":[],"outputs":[{"name":"","type":"uint256","internalType":"uint256"}],"stateMutability":"view"},{"type":"function","name":"getRoleAdmin","inputs":[{"name":"role","type":"bytes32","internalType":"bytes32"}],"outputs":[{"name":"","type":"bytes32","internalType":"bytes32"}],"stateMutability":"view"},{"type":"function","name":"governanceModeEnabled","inputs":[],"outputs":[{"name":"","type":"bool","internalType":"bool"}],"stateMutability":"view"},{"type":"function","name":"grantRole","inputs":[{"name":"role","type":"bytes32","internalType":"bytes32"},{"name":"account","type":"address","internalType":"address"}],"outputs":[],"stateMutability":"nonpayable"},{"type":"function","name":"hasRole","inputs":[{"name":"role","type":"bytes32","internalType":"bytes32"},{"name":"account","type":"address","internalType":"address"}],"outputs":[{"name":"","type":"bool","internalType":"bool"}],"stateMutability":"view"},{"type":"function","name":"owner","inputs":[],"outputs":[{"name":"","type":"address","internalType":"address"}],"stateMutability":"view"},{"type":"function","name":"projectWallet","inputs":[],"outputs":[{"name":"","type":"address","internalType":"address"}],"stateMutability":"view"},{"type":"function","name":"renounceOwnership","inputs":[],"outputs":[],"stateMutability":"nonpayable"},{"type":"function","name":"renounceRole","inputs":[{"name":"role","type":"bytes32","internalType":"bytes32"},{"name":"callerConfirmation","type":"address","internalType":"address"}],"outputs":[],"stateMutability":"nonpayable"},{"type":"function","name":"revokeRole","inputs":[{"name":"role","type":"bytes32","internalType":"bytes32"},{"name":"account","type":"address","internalType":"address"}],"outputs":[],"stateMutability":"nonpayable"},{"type":"function","name":"setFeeWei","inputs":[{"name":"newFeeWei","type":"uint256","internalType":"uint256"}],"outputs":[],"stateMutability":"nonpayable"},{"type":"function","name":"setProjectWallet","inputs":[{"name":"newWallet","type":"address","internalType":"address"}],"outputs":[],"stateMutability":"nonpayable"},{"type":"function","name":"setTrustedBootstrapper","inputs":[{"name":"bootstrapper","type":"address","internalType":"address"}],"outputs":[],"stateMutability":"nonpayable"},{"type":"function","name":"supportsInterface","inputs":[{"name":"interfaceId","type":"bytes4","internalType":"bytes4"}],"outputs":[{"name":"","type":"bool","internalType":"bool"}],"stateMutability":"view"},{"type":"function","name":"transferOwnership","inputs":[{"name":"newOwner","type":"address","internalType":"address"}],"outputs":[],"stateMutability":"nonpayable"},{"type":"function","name":"trustedBootstrapper","inputs":[],"outputs":[{"name":"","type":"address","internalType":"address"}],"stateMutability":"view"},{"type":"event","name":"FeeCollected","inputs":[{"name":"payer","type":"address","indexed":true,"internalType":"address"},{"name":"amount","type":"uint256","indexed":false,"internalType":"uint256"}],"anonymous":false},{"type":"event","name":"FeeWeiUpdated","inputs":[{"name":"newFeeWei","type":"uint256","indexed":false,"internalType":"uint256"}],"anonymous":false},{"type":"event","name":"Forwarded","inputs":[{"name":"to","type":"address","indexed":true,"internalType":"address"},{"name":"amount","type":"uint256","indexed":false,"internalType":"uint256"}],"anonymous":false},{"type":"event","name":"GovernanceModeEnabled","inputs":[{"name":"admin","type":"address","indexed":true,"internalType":"address"},{"name":"paramSetter","type":"address","indexed":true,"internalType":"address"}],"anonymous":false},{"type":"event","name":"OwnershipTransferred","inputs":[{"name":"previousOwner","type":"address","indexed":true,"internalType":"address"},{"name":"newOwner","type":"address","indexed":true,"internalType":"address"}],"anonymous":false},{"type":"event","name":"ProjectWalletUpdated","inputs":[{"name":"newWallet","type":"address","indexed":true,"internalType":"address"}],"anonymous":false},{"type":"event","name":"RoleAdminChanged","inputs":[{"name":"role","type":"bytes32","indexed":true,"internalType":"bytes32"},{"name":"previousAdminRole","type":"bytes32","indexed":true,"internalType":"bytes32"},{"name":"newAdminRole","type":"bytes32","indexed":true,"internalType":"bytes32"}],"anonymous":false},{"type":"event","name":"RoleGranted","inputs":[{"name":"role","type":"bytes32","indexed":true,"internalType":"bytes32"},{"name":"account","type":"address","indexed":true,"internalType":"address"},{"name":"sender","type":"address","indexed":true,"internalType":"address"}],"anonymous":false},{"type":"event","name":"RoleRevoked","inputs":[{"name":"role","type":"bytes32","indexed":true,"internalType":"bytes32"},{"name":"account","type":"address","indexed":true,"internalType":"address"},{"name":"sender","type":"address","indexed":true,"internalType":"address"}],"anonymous":false},{"type":"error","name":"AccessControlBadConfirmation","inputs":[]},{"type":"error","name":"AccessControlUnauthorizedAccount","inputs":[{"name":"account","type":"address","internalType":"address"},{"name":"neededRole","type":"bytes32","internalType":"bytes32"}]},{"type":"error","name":"AddressInsufficientBalance","inputs":[{"name":"account","type":"address","internalType":"address"}]},{"type":"error","name":"FailedInnerCall","inputs":[]},{"type":"error","name":"OwnableInvalidOwner","inputs":[{"name":"owner","type":"address","internalType":"address"}]},{"type":"error","name":"OwnableUnauthorizedAccount","inputs":[{"name":"account","type":"address","internalType":"address"}]},{"type":"error","name":"ReentrancyGuardReentrantCall","inputs":[]}],"bytecode":{"object":"0x608060405234801562000010575f80fd5b506040516200168838038062001688833981016040819052620000339162000227565b806001600160a01b0381166200006357604051631e4fbdf760e01b81525f60048201526024015b60405180910390fd5b6200006e8162000128565b5060016002556001600160a01b038316620000f25760405162461bcd60e51b815260206004820152603460248201527f4665654469737472696275746f723a2070726f6a65637457616c6c657420636160448201527f6e6e6f74206265207a65726f206164647265737300000000000000000000000060648201526084016200005a565b600380546001600160a01b0319166001600160a01b03851617905560048290556200011e5f8262000177565b5050505062000265565b5f80546001600160a01b038381166001600160a01b0319831681178455604051919092169283917f8be0079c531659141344cd1fd0a4f28419497f9722a3daafe3b4186f6b6457e09190a35050565b5f8281526001602090815260408083206001600160a01b038516845290915281205460ff1662000202575f8381526001602081815260408084206001600160a01b0387168086529252808420805460ff19169093179092559051339286917f2f8788117e7eff1d82e926ec794901d17c78024a50270940304540a733656f0d9190a450600162000205565b505f5b92915050565b80516001600160a01b038116811462000222575f80fd5b919050565b5f805f606084860312156200023a575f80fd5b62000245846200020b565b9250602084015191506200025c604085016200020b565b90509250925092565b61141580620002735f395ff3fe60806040526004361061015a575f3560e01c80638da5cb5b116100bb578063bc52900b11610071578063d547741f11610057578063d547741f14610416578063f2fde38b14610435578063fada5da114610454575f80fd5b8063bc52900b146103d1578063beb08ab9146103ea575f80fd5b806391d14854116100a157806391d148541461034e578063a217fddf1461039f578063b50a9da8146103b2575f80fd5b80638da5cb5b146102f257806391b7cd581461031b575f80fd5b806336568abe1161011057806365fa88ec116100f657806365fa88ec146102a0578063715018a6146102bf5780638a780447146102d3575f80fd5b806336568abe1461026c578063428c090b1461028b575f80fd5b8063248a9ca311610140578063248a9ca3146101ef5780632edbf1b41461022c5780632f2ff15d1461024d575f80fd5b806301ffc9a71461016557806323b32bf314610199575f80fd5b3661016157005b5f80fd5b348015610170575f80fd5b5061018461017f3660046112ef565b61045c565b60405190151581526020015b60405180910390f35b3480156101a4575f80fd5b506005546101ca90610100900473ffffffffffffffffffffffffffffffffffffffff1681565b60405173ffffffffffffffffffffffffffffffffffffffff9091168152602001610190565b3480156101fa575f80fd5b5061021e610209366004611335565b5f908152600160208190526040909120015490565b604051908152602001610190565b348015610237575f80fd5b5061024b610246366004611335565b6104f4565b005b348015610258575f80fd5b5061024b610267366004611374565b610537565b348015610277575f80fd5b5061024b610286366004611374565b610562565b348015610296575f80fd5b5061021e60045481565b3480156102ab575f80fd5b5061024b6102ba36600461139e565b6105c0565b3480156102ca575f80fd5b5061024b6106d2565b3480156102de575f80fd5b5061024b6102ed36600461139e565b6106e5565b3480156102fd575f80fd5b505f5473ffffffffffffffffffffffffffffffffffffffff166101ca565b348015610326575f80fd5b5061021e7f597b121aab77e221e6a68f35bfe5cd0100f93845c4f871f403c8b3592a44ea0381565b348015610359575f80fd5b50610184610368366004611374565b5f91825260016020908152604080842073ffffffffffffffffffffffffffffffffffffffff93909316845291905290205460ff1690565b3480156103aa575f80fd5b5061021e5f81565b3480156103bd575f80fd5b5061024b6103cc3660046113b7565b6107fe565b3480156103dc575f80fd5b506005546101849060ff1681565b3480156103f5575f80fd5b506003546101ca9073ffffffffffffffffffffffffffffffffffffffff1681565b348015610421575f80fd5b5061024b610430366004611374565b610be1565b348015610440575f80fd5b5061024b61044f36600461139e565b610c06565b61024b610c69565b5f7fffffffff0000000000000000000000000000000000000000000000000000000082167f7965db0b0000000000000000000000000000000000000000000000000000000014806104ee57507f01ffc9a7000000000000000000000000000000000000000000000000000000007fffffffff000000000000000000000000000000000000000000000000000000008316145b92915050565b6104fc610d8e565b60048190556040518181527f39c709d1c431a69e80eb0376e24bcabbcd8c3c3eb7bbd52144f54762bda9bb659060200160405180910390a150565b5f828152600160208190526040909120015461055281610efc565b61055c8383610f06565b50505050565b73ffffffffffffffffffffffffffffffffffffffff811633146105b1576040517f6697b23200000000000000000000000000000000000000000000000000000000815260040160405180910390fd5b6105bb8282610fce565b505050565b6105c861108b565b60055460ff1615610686576040517f08c379a000000000000000000000000000000000000000000000000000000000815260206004820152604560248201527f4665654469737472696275746f723a2063616e6e6f742073657420626f6f747360448201527f7472617070657220616674657220676f7665726e616e6365206d6f646520656e60648201527f61626c6564000000000000000000000000000000000000000000000000000000608482015260a4015b60405180910390fd5b6005805473ffffffffffffffffffffffffffffffffffffffff909216610100027fffffffffffffffffffffff0000000000000000000000000000000000000000ff909216919091179055565b6106da61108b565b6106e35f6110dd565b565b6106ed610d8e565b73ffffffffffffffffffffffffffffffffffffffff8116610790576040517f08c379a000000000000000000000000000000000000000000000000000000000815260206004820152603060248201527f4665654469737472696275746f723a206e657757616c6c65742063616e6e6f7460448201527f206265207a65726f206164647265737300000000000000000000000000000000606482015260840161067d565b600380547fffffffffffffffffffffffff00000000000000000000000000000000000000001673ffffffffffffffffffffffffffffffffffffffff83169081179091556040517fec859decd72bbc1028a5d9cff18865d253e0a9c46133f5de383c3cd73ab89b65905f90a250565b5f5473ffffffffffffffffffffffffffffffffffffffff1633148015906108425750600554610100900473ffffffffffffffffffffffffffffffffffffffff163314155b156108cf576040517f08c379a000000000000000000000000000000000000000000000000000000000815260206004820152603f60248201527f4665654469737472696275746f723a2063616c6c6572206973206e6f7420746860448201527f65206f776e6572206f72207472757374656420626f6f74737472617070657200606482015260840161067d565b600554610100900473ffffffffffffffffffffffffffffffffffffffff16331480156109175750600554610100900473ffffffffffffffffffffffffffffffffffffffff1615155b5060055460ff16156109ab576040517f08c379a000000000000000000000000000000000000000000000000000000000815260206004820152602f60248201527f4665654469737472696275746f723a20676f7665726e616e6365206d6f64652060448201527f616c726561647920656e61626c65640000000000000000000000000000000000606482015260840161067d565b73ffffffffffffffffffffffffffffffffffffffff8216610a4e576040517f08c379a000000000000000000000000000000000000000000000000000000000815260206004820152602c60248201527f4665654469737472696275746f723a2061646d696e2063616e6e6f742062652060448201527f7a65726f20616464726573730000000000000000000000000000000000000000606482015260840161067d565b73ffffffffffffffffffffffffffffffffffffffff8116610af1576040517f08c379a000000000000000000000000000000000000000000000000000000000815260206004820152603260248201527f4665654469737472696275746f723a20706172616d5365747465722063616e6e60448201527f6f74206265207a65726f20616464726573730000000000000000000000000000606482015260840161067d565b600580547fffffffffffffffffffffffffffffffffffffffffffffffffffffffffffffff00166001179055610b265f83610f06565b50610b517f597b121aab77e221e6a68f35bfe5cd0100f93845c4f871f403c8b3592a44ea0382610f06565b50610b795f610b745f5473ffffffffffffffffffffffffffffffffffffffff1690565b610fce565b50610b83826110dd565b8073ffffffffffffffffffffffffffffffffffffffff168273ffffffffffffffffffffffffffffffffffffffff167f636eebd3fa636d132c0642257636a03b90019c563c593d3c831318f9f3a7442960405160405180910390a35050565b5f8281526001602081905260409091200154610bfc81610efc565b61055c8383610fce565b610c0e61108b565b73ffffffffffffffffffffffffffffffffffffffff8116610c5d576040517f1e4fbdf70000000000000000000000000000000000000000000000000000000081525f600482015260240161067d565b610c66816110dd565b50565b610c71611151565b600454341015610cdd576040517f08c379a000000000000000000000000000000000000000000000000000000000815260206004820181905260248201527f4665654469737472696275746f723a20696e73756666696369656e7420666565604482015260640161067d565b60405134815233907f06c5efeff5c320943d265dc4e5f1af95ad523555ce0c1957e367dda5514572df9060200160405180910390a2600354610d359073ffffffffffffffffffffffffffffffffffffffff1634611192565b60035460405134815273ffffffffffffffffffffffffffffffffffffffff909116907f6f1deddfc28100c291fae8f1064e4a91e844f0841993bb8fba9a913c3b801d809060200160405180910390a26106e36001600255565b60055460ff1615610e5657335f9081527fdb2d0a3dd5f1671095ae85310ffbb7cc5134b90daea1d7ba34d87ef2c0dd73dc602052604090205460ff166106e3576040517f08c379a000000000000000000000000000000000000000000000000000000000815260206004820152603660248201527f4665654469737472696275746f723a2063616c6c657220646f6573206e6f742060448201527f6861766520504152414d5f5345545445525f524f4c4500000000000000000000606482015260840161067d565b5f5473ffffffffffffffffffffffffffffffffffffffff1633146106e3576040517f08c379a000000000000000000000000000000000000000000000000000000000815260206004820152602760248201527f4665654469737472696275746f723a2063616c6c6572206973206e6f7420746860448201527f65206f776e657200000000000000000000000000000000000000000000000000606482015260840161067d565b610c668133611264565b5f82815260016020908152604080832073ffffffffffffffffffffffffffffffffffffffff8516845290915281205460ff16610fc7575f83815260016020818152604080842073ffffffffffffffffffffffffffffffffffffffff8716808652925280842080547fffffffffffffffffffffffffffffffffffffffffffffffffffffffffffffff00169093179092559051339286917f2f8788117e7eff1d82e926ec794901d17c78024a50270940304540a733656f0d9190a45060016104ee565b505f6104ee565b5f82815260016020908152604080832073ffffffffffffffffffffffffffffffffffffffff8516845290915281205460ff1615610fc7575f83815260016020908152604080832073ffffffffffffffffffffffffffffffffffffffff8616808552925280832080547fffffffffffffffffffffffffffffffffffffffffffffffffffffffffffffff0016905551339286917ff6391f5c32d9c69d2a47ea670b442974b53935d1edc7fd64eb21e047a839171b9190a45060016104ee565b5f5473ffffffffffffffffffffffffffffffffffffffff1633146106e3576040517f118cdaa700000000000000000000000000000000000000000000000000000000815233600482015260240161067d565b5f805473ffffffffffffffffffffffffffffffffffffffff8381167fffffffffffffffffffffffff0000000000000000000000000000000000000000831681178455604051919092169283917f8be0079c531659141344cd1fd0a4f28419497f9722a3daafe3b4186f6b6457e09190a35050565b600280540361118c576040517f3ee5aeb500000000000000000000000000000000000000000000000000000000815260040160405180910390fd5b60028055565b804710156111ce576040517fcd78605900000000000000000000000000000000000000000000000000000000815230600482015260240161067d565b5f8273ffffffffffffffffffffffffffffffffffffffff16826040515f6040518083038185875af1925050503d805f8114611224576040519150601f19603f3d011682016040523d82523d5f602084013e611229565b606091505b50509050806105bb576040517f1425ea4200000000000000000000000000000000000000000000000000000000815260040160405180910390fd5b5f82815260016020908152604080832073ffffffffffffffffffffffffffffffffffffffff8516845290915290205460ff166112eb576040517fe2517d3f00000000000000000000000000000000000000000000000000000000815273ffffffffffffffffffffffffffffffffffffffff821660048201526024810183905260440161067d565b5050565b5f602082840312156112ff575f80fd5b81357fffffffff000000000000000000000000000000000000000000000000000000008116811461132e575f80fd5b9392505050565b5f60208284031215611345575f80fd5b5035919050565b803573ffffffffffffffffffffffffffffffffffffffff8116811461136f575f80fd5b919050565b5f8060408385031215611385575f80fd5b823591506113956020840161134c565b90509250929050565b5f602082840312156113ae575f80fd5b61132e8261134c565b5f80604083850312156113c8575f80fd5b6113d18361134c565b91506113956020840161134c56fea2646970667358221220ffb4a045c8925d6c27eaeb8c74ba8818e8ad00dc68056652ed25b527bd72ebe664736f6c63430008180033","linkReferences":{}},"methodIdentifiers":{"DEFAULT_ADMIN_ROLE()":"a217fddf","PARAM_SETTER_ROLE()":"91b7cd58","collectEth()":"fada5da1","enableGovernanceMode(address,address)":"b50a9da8","feeWei()":"428c090b","getRoleAdmin(bytes32)":"248a9ca3","governanceModeEnabled()":"bc52900b","grantRole(bytes32,address)":"2f2ff15d","hasRole(bytes32,address)":"91d14854","owner()":"8da5cb5b","projectWallet()":"beb08ab9","renounceOwnership()":"715018a6","renounceRole(bytes32,address)":"36568abe","revokeRole(bytes32,address)":"d547741f","setFeeWei(uint256)":"2edbf1b4","setProjectWallet(address)":"8a780447","setTrustedBootstrapper(address)":"65fa88ec","supportsInterface(bytes4)":"01ffc9a7","transferOwnership(address)":"f2fde38b","trustedBootstrapper()":"23b32bf3"},"id":49}