{"abi":[{"type":"constructor","inputs":[{"name":"feeDistributor_","type":"address","internalType":"address"},{"name":"owner_","type":"address","internalType":"address"}],"stateMutability":"nonpayable"},{"type":"function","name":"DEFAULT_ADMIN_ROLE","inputs":[],"outputs":[{"name":"","type":"bytes32","internalType":"bytes32"}],"stateMutability":"view"},{"type":"function","name":"PARAM_SETTER_ROLE","inputs":[],"outputs":[{"name":"","type":"bytes32","internalType":"bytes32"}],"stateMutability":"view"},{"type":"function","name":"actionAllowlist","inputs":[{"name":"","type":"bytes32","internalType":"bytes32"}],"outputs":[{"name":"","type":"bool","internalType":"bool"}],"stateMutability":"view"},{"type":"function","name":"actionReward","inputs":[{"name":"","type":"bytes32","internalType":"bytes32"}],"outputs":[{"name":"","type":"uint256","internalType":"uint256"}],"stateMutability":"view"},{"type":"function","name":"aioRewardPool","inputs":[],"outputs":[{"name":"","type":"address","internalType":"address"}],"stateMutability":"view"},{"type":"function","name":"aioToken","inputs":[],"outputs":[{"name":"","type":"address","internalType":"contract IAIOERC20"}],"stateMutability":"view"},{"type":"function","name":"allowlistEnabled","inputs":[],"outputs":[{"name":"","type":"bool","internalType":"bool"}],"stateMutability":"view"},{"type":"function","name":"claimAIO","inputs":[{"name":"action","type":"string","internalType":"string"},{"name":"timestamp","type":"uint256","internalType":"uint256"}],"outputs":[],"stateMutability":"nonpayable"},{"type":"function","name":"claimedInteractions","inputs":[{"name":"","type":"address","internalType":"address"},{"name":"","type":"bytes32","internalType":"bytes32"},{"name":"","type":"uint256","internalType":"uint256"}],"outputs":[{"name":"","type":"bool","internalType":"bool"}],"stateMutability":"view"},{"type":"function","name":"enableGovernanceMode","inputs":[{"name":"admin","type":"address","internalType":"address"},{"name":"paramSetter","type":"address","internalType":"address"}],"outputs":[],"stateMutability":"nonpayable"},{"type":"function","name":"feeDistributor","inputs":[],"outputs":[{"name":"","type":"address","internalType":"contract IFeeDistributor"}],"stateMutability":"view"},{"type":"function","name":"getClaimStatus","inputs":[{"name":"user","type":"address","internalType":"address"},{"name":"action","type":"string","internalType":"string"},{"name":"timestamp","type":"uint256","internalType":"uint256"}],"outputs":[{"name":"claimed","type":"bool","internalType":"bool"},{"name":"rewardAmount","type":"uint256","internalType":"uint256"}],"stateMutability":"view"},{"type":"function","name":"getConfig","inputs":[],"outputs":[{"name":"feeWei_","type":"uint256","internalType":"uint256"},{"name":"feeDistributor_","type":"address","internalType":"address"},{"name":"allowlistEnabled_","type":"bool","internalType":"bool"},{"name":"aioToken_","type":"address","internalType":"address"},{"name":"aioRewardPool_","type":"address","internalType":"address"}],"stateMutability":"view"},{"type":"function","name":"getRoleAdmin","inputs":[{"name":"role","type":"bytes32","internalType":"bytes32"}],"outputs":[{"name":"","type":"bytes32","internalType":"bytes32"}],"stateMutability":"view"},{"type":"function","name":"governanceModeEnabled","inputs":[],"outputs":[{"name":"","type":"bool","internalType":"bool"}],"stateMutability":"view"},{"type":"function","name":"grantRole","inputs":[{"name":"role","type":"bytes32","internalType":"bytes32"},{"name":"account","type":"address","internalType":"address"}],"outputs":[],"stateMutability":"nonpayable"},{"type":"function","name":"hasRole","inputs":[{"name":"role","type":"bytes32","internalType":"bytes32"},{"name":"account","type":"address","internalType":"address"}],"outputs":[{"name":"","type":"bool","internalType":"bool"}],"stateMutability":"view"},{"type":"function","name":"interact","inputs":[{"name":"action","type":"string","internalType":"string"},{"name":"meta","type":"bytes","internalType":"bytes"}],"outputs":[],"stateMutability":"payable"},{"type":"function","name":"owner","inputs":[],"outputs":[{"name":"","type":"address","internalType":"address"}],"stateMutability":"view"},{"type":"function","name":"renounceOwnership","inputs":[],"outputs":[],"stateMutability":"nonpayable"},{"type":"function","name":"renounceRole","inputs":[{"name":"role","type":"bytes32","internalType":"bytes32"},{"name":"callerConfirmation","type":"address","internalType":"address"}],"outputs":[],"stateMutability":"nonpayable"},{"type":"function","name":"revokeRole","inputs":[{"name":"role","type":"bytes32","internalType":"bytes32"},{"name":"account","type":"address","internalType":"address"}],"outputs":[],"stateMutability":"nonpayable"},{"type":"function","name":"setAIORewardPool","inputs":[{"name":"rewardPool_","type":"address","internalType":"address"}],"outputs":[],"stateMutability":"nonpayable"},{"type":"function","name":"setAIOToken","inputs":[{"name":"aioToken_","type":"address","internalType":"address"}],"outputs":[],"stateMutability":"nonpayable"},{"type":"function","name":"setActionAllowlist","inputs":[{"name":"actionHash","type":"bytes32","internalType":"bytes32"},{"name":"allowed","type":"bool","internalType":"bool"}],"outputs":[],"stateMutability":"nonpayable"},{"type":"function","name":"setActionAllowlistByString","inputs":[{"name":"action","type":"string","internalType":"string"},{"name":"allowed","type":"bool","internalType":"bool"}],"outputs":[],"stateMutability":"nonpayable"},{"type":"function","name":"setActionReward","inputs":[{"name":"actionHash","type":"bytes32","internalType":"bytes32"},{"name":"rewardAmount","type":"uint256","internalType":"uint256"}],"outputs":[],"stateMutability":"nonpayable"},{"type":"function","name":"setActionRewardByString","inputs":[{"name":"action","type":"string","internalType":"string"},{"name":"rewardAmount","type":"uint256","internalType":"uint256"}],"outputs":[],"stateMutability":"nonpayable"},{"type":"function","name":"setAllowlistEnabled","inputs":[{"name":"enabled","type":"bool","internalType":"bool"}],"outputs":[],"stateMutability":"nonpayable"},{"type":"function","name":"setTrustedBootstrapper","inputs":[{"name":"bootstrapper","type":"address","internalType":"address"}],"outputs":[],"stateMutability":"nonpayable"},{"type":"function","name":"supportsInterface","inputs":[{"name":"interfaceId","type":"bytes4","internalType":"bytes4"}],"outputs":[{"name":"","type":"bool","internalType":"bool"}],"stateMutability":"view"},{"type":"function","name":"transferOwnership","inputs":[{"name":"newOwner","type":"address","internalType":"address"}],"outputs":[],"stateMutability":"nonpayable"},{"type":"function","name":"trustedBootstrapper","inputs":[],"outputs":[{"name":"","type":"address","internalType":"address"}],"stateMutability":"view"},{"type":"event","name":"AIOClaimed","inputs":[{"name":"user","type":"address","indexed":true,"internalType":"address"},{"name":"actionHash","type":"bytes32","indexed":true,"internalType":"bytes32"},{"name":"action","type":"string","indexed":false,"internalType":"string"},{"name":"amount","type":"uint256","indexed":false,"internalType":"uint256"},{"name":"timestamp","type":"uint256","indexed":false,"internalType":"uint256"}],"anonymous":false},{"type":"event","name":"AIORewardPoolUpdated","inputs":[{"name":"rewardPool_","type":"address","indexed":true,"internalType":"address"}],"anonymous":false},{"type":"event","name":"AIOTokenUpdated","inputs":[{"name":"aioToken_","type":"address","indexed":true,"internalType":"address"}],"anonymous":false},{"type":"event","name":"ActionAllowlistUpdated","inputs":[{"name":"actionHash","type":"bytes32","indexed":true,"internalType":"bytes32"},{"name":"allowed","type":"bool","indexed":false,"internalType":"bool"}],"anonymous":false},{"type":"event","name":"ActionRewardUpdated","inputs":[{"name":"actionHash","type":"bytes32","indexed":true,"internalType":"bytes32"},{"name":"rewardAmount","type":"uint256","indexed":false,"internalType":"uint256"}],"anonymous":false},{"type":"event","name":"AllowlistToggled","inputs":[{"name":"enabled","type":"bool","indexed":false,"internalType":"bool"}],"anonymous":false},{"type":"event","name":"GovernanceModeEnabled","inputs":[{"name":"admin","type":"address","indexed":true,"internalType":"address"},{"name":"paramSetter","type":"address","indexed":true,"internalType":"address"}],"anonymous":false},{"type":"event","name":"InteractionRecorded","inputs":[{"name":"user","type":"address","indexed":true,"internalType":"address"},{"name":"actionHash","type":"bytes32","indexed":true,"internalType":"bytes32"},{"name":"action","type":"string","indexed":false,"internalType":"string"},{"name":"meta","type":"bytes","indexed":false,"internalType":"bytes"},{"name":"timestamp","type":"uint256","indexed":false,"internalType":"uint256"}],"anonymous":false},{"type":"event","name":"OwnershipTransferred","inputs":[{"name":"previousOwner","type":"address","indexed":true,"internalType":"address"},{"name":"newOwner","type":"address","indexed":true,"internalType":"address"}],"anonymous":false},{"type":"event","name":"RoleAdminChanged","inputs":[{"name":"role","type":"bytes32","indexed":true,"internalType":"bytes32"},{"name":"previousAdminRole","type":"bytes32","indexed":true,"internalType":"bytes32"},{"name":"newAdminRole","type":"bytes32","indexed":true,"internalType":"bytes32"}],"anonymous":false},{"type":"event","name":"RoleGranted","inputs":[{"name":"role","type":"bytes32","indexed":true,"internalType":"bytes32"},{"name":"account","type":"address","indexed":true,"internalType":"address"},{"name":"sender","type":"address","indexed":true,"internalType":"address"}],"anonymous":false},{"type":"event","name":"RoleRevoked","inputs":[{"name":"role","type":"bytes32","indexed":true,"internalType":"bytes32"},{"name":"account","type":"address","indexed":true,"internalType":"address"},{"name":"sender","type":"address","indexed":true,"internalType":"address"}],"anonymous":false},{"type":"error","name":"AccessControlBadConfirmation","inputs":[]},{"type":"error","name":"AccessControlUnauthorizedAccount","inputs":[{"name":"account","type":"address","internalType":"address"},{"name":"neededRole","type":"bytes32","internalType":"bytes32"}]},{"type":"error","name":"OwnableInvalidOwner","inputs":[{"name":"owner","type":"address","internalType":"address"}]},{"type":"error","name":"OwnableUnauthorizedAccount","inputs":[{"name":"account","type":"address","internalType":"address"}]},{"type":"error","name":"ReentrancyGuardReentrantCall","inputs":[]}],"bytecode":{"object":"0x60a060405234801562000010575f80fd5b50604051620025c4380380620025c4833981016040819052620000339162000208565b806001600160a01b0381166200006357604051631e4fbdf760e01b81525f60048201526024015b60405180910390fd5b6200006e8162000109565b5060016002556001600160a01b038216620000e75760405162461bcd60e51b815260206004820152603260248201527f496e746572616374696f6e3a206665654469737472696275746f722063616e6e6044820152716f74206265207a65726f206164647265737360701b60648201526084016200005a565b6001600160a01b038216608052620001005f8262000158565b5050506200023e565b5f80546001600160a01b038381166001600160a01b0319831681178455604051919092169283917f8be0079c531659141344cd1fd0a4f28419497f9722a3daafe3b4186f6b6457e09190a35050565b5f8281526001602090815260408083206001600160a01b038516845290915281205460ff16620001e3575f8381526001602081815260408084206001600160a01b0387168086529252808420805460ff19169093179092559051339286917f2f8788117e7eff1d82e926ec794901d17c78024a50270940304540a733656f0d9190a4506001620001e6565b505f5b92915050565b80516001600160a01b038116811462000203575f80fd5b919050565b5f80604083850312156200021a575f80fd5b6200022583620001ec565b91506200023560208401620001ec565b90509250929050565b608051612351620002735f395f818161023e01528181610c8e01528181610e3e0152818161175101526117e601526123515ff3fe6080604052600436106101f5575f3560e01c806391d1485411610117578063bbb59677116100ac578063d4059cb51161007c578063d7644ba211610062578063d7644ba2146106d8578063e4f29ef6146106f7578063f2fde38b14610736575f80fd5b8063d4059cb51461069a578063d547741f146106b9575f80fd5b8063bbb59677146105dd578063bc52900b146105fc578063c3f909d414610615578063c4741b2e1461066c575f80fd5b8063a217fddf116100e7578063a217fddf14610579578063aac3ebc01461058c578063aadb209d1461059f578063b50a9da8146105be575f80fd5b806391d14854146104ac57806393fd7c2a146104fd57806394c8e4ff1461051c5780639917d8f81461054d575f80fd5b80632f2ff15d1161018d57806378aedfc81161015d57806378aedfc8146103ee5780638da5cb5b1461041a5780638ea675381461044357806391b7cd5814610479575f80fd5b80632f2ff15d1461037d57806336568abe1461039c57806365fa88ec146103bb578063715018a6146103da575f80fd5b806323b32bf3116101c857806323b32bf3146102df578063248a9ca3146103105780632811c2bb1461033f5780632ac531241461035e575f80fd5b806301ffc9a7146101f95780630d43e8ad1461022d5780630f4e01091461028557806323663609146102be575b5f80fd5b348015610204575f80fd5b50610218610213366004611f01565b610755565b60405190151581526020015b60405180910390f35b348015610238575f80fd5b506102607f000000000000000000000000000000000000000000000000000000000000000081565b60405173ffffffffffffffffffffffffffffffffffffffff9091168152602001610224565b348015610290575f80fd5b506102b061029f366004611f47565b60066020525f908152604090205481565b604051908152602001610224565b3480156102c9575f80fd5b506102dd6102d8366004611f6b565b6107ed565b005b3480156102ea575f80fd5b5060085461026090610100900473ffffffffffffffffffffffffffffffffffffffff1681565b34801561031b575f80fd5b506102b061032a366004611f47565b5f908152600160208190526040909120015490565b34801561034a575f80fd5b506102dd610359366004611fc1565b61086a565b348015610369575f80fd5b506102dd610378366004611fda565b610988565b348015610388575f80fd5b506102dd610397366004611ffa565b6109d4565b3480156103a7575f80fd5b506102dd6103b6366004611ffa565b6109ff565b3480156103c6575f80fd5b506102dd6103d5366004611fc1565b610a5d565b3480156103e5575f80fd5b506102dd610b6a565b3480156103f9575f80fd5b506004546102609073ffffffffffffffffffffffffffffffffffffffff1681565b348015610425575f80fd5b505f5473ffffffffffffffffffffffffffffffffffffffff16610260565b34801561044e575f80fd5b5061046261045d366004612069565b610b7d565b604080519215158352602083019190915201610224565b348015610484575f80fd5b506102b07f597b121aab77e221e6a68f35bfe5cd0100f93845c4f871f403c8b3592a44ea0381565b3480156104b7575f80fd5b506102186104c6366004611ffa565b5f91825260016020908152604080842073ffffffffffffffffffffffffffffffffffffffff93909316845291905290205460ff1690565b348015610508575f80fd5b506102dd6105173660046120bf565b610bed565b348015610527575f80fd5b506004546102189074010000000000000000000000000000000000000000900460ff1681565b348015610558575f80fd5b506003546102609073ffffffffffffffffffffffffffffffffffffffff1681565b348015610584575f80fd5b506102b05f81565b6102dd61059a366004612112565b610c83565b3480156105aa575f80fd5b506102dd6105b9366004612179565b610f1c565b3480156105c9575f80fd5b506102dd6105d83660046121c1565b610f7f565b3480156105e8575f80fd5b506102dd6105f7366004612179565b611319565b348015610607575f80fd5b506008546102189060ff1681565b348015610620575f80fd5b5061062961174a565b6040805195865273ffffffffffffffffffffffffffffffffffffffff9485166020870152921515928501929092528216606084015216608082015260a001610224565b348015610677575f80fd5b50610218610686366004611f47565b60056020525f908152604090205460ff1681565b3480156106a5575f80fd5b506102dd6106b4366004611fc1565b611846565b3480156106c4575f80fd5b506102dd6106d3366004611ffa565b61195f565b3480156106e3575f80fd5b506102dd6106f23660046121e9565b611984565b348015610702575f80fd5b50610218610711366004612204565b600760209081525f938452604080852082529284528284209052825290205460ff1681565b348015610741575f80fd5b506102dd610750366004611fc1565b611a10565b5f7fffffffff0000000000000000000000000000000000000000000000000000000082167f7965db0b0000000000000000000000000000000000000000000000000000000014806107e757507f01ffc9a7000000000000000000000000000000000000000000000000000000007fffffffff000000000000000000000000000000000000000000000000000000008316145b92915050565b6107f5611a73565b5f8281526005602090815260409182902080547fffffffffffffffffffffffffffffffffffffffffffffffffffffffffffffff0016841515908117909155915191825283917f4522f986b8e14fd0591a15360e60229275a34d3fdb9ee5a15dba05220bbdf30d91015b60405180910390a25050565b610872611a73565b73ffffffffffffffffffffffffffffffffffffffff811661091a576040517f08c379a000000000000000000000000000000000000000000000000000000000815260206004820152602e60248201527f496e746572616374696f6e3a20726577617264506f6f6c2063616e6e6f74206260448201527f65207a65726f206164647265737300000000000000000000000000000000000060648201526084015b60405180910390fd5b600480547fffffffffffffffffffffffff00000000000000000000000000000000000000001673ffffffffffffffffffffffffffffffffffffffff83169081179091556040517f8af6d7119abbc23233d1705a58245345f5aff2e5794293d659c1217e0f71e9b1905f90a250565b610990611a73565b5f82815260066020526040908190208290555182907f1a62b9d0f2073ac4dda8d83f526e24039839bf1e57326ffbfcc6ffe8f2eae7079061085e9084815260200190565b5f82815260016020819052604090912001546109ef81611be0565b6109f98383611bea565b50505050565b73ffffffffffffffffffffffffffffffffffffffff81163314610a4e576040517f6697b23200000000000000000000000000000000000000000000000000000000815260040160405180910390fd5b610a588282611cb2565b505050565b610a65611d6f565b60085460ff1615610b1e576040517f08c379a000000000000000000000000000000000000000000000000000000000815260206004820152604260248201527f496e746572616374696f6e3a2063616e6e6f742073657420626f6f747374726160448201527f7070657220616674657220676f7665726e616e6365206d6f646520656e61626c60648201527f6564000000000000000000000000000000000000000000000000000000000000608482015260a401610911565b6008805473ffffffffffffffffffffffffffffffffffffffff909216610100027fffffffffffffffffffffff0000000000000000000000000000000000000000ff909216919091179055565b610b72611d6f565b610b7b5f611dc1565b565b5f805f8585604051610b90929190612234565b604080519182900390912073ffffffffffffffffffffffffffffffffffffffff9098165f908152600760209081528282208a835281528282209682529586528181205498815260069095529093205460ff90961696945050505050565b610bf5611a73565b5f8383604051610c06929190612234565b604080519182900382205f8181526005602090815292902080547fffffffffffffffffffffffffffffffffffffffffffffffffffffffffffffff00168615159081179091558352925082917f4522f986b8e14fd0591a15360e60229275a34d3fdb9ee5a15dba05220bbdf30d91015b60405180910390a250505050565b610c8b611e35565b5f7f000000000000000000000000000000000000000000000000000000000000000073ffffffffffffffffffffffffffffffffffffffff1663428c090b6040518163ffffffff1660e01b8152600401602060405180830381865afa158015610cf5573d5f803e3d5ffd5b505050506040513d601f19601f82011682018060405250810190610d199190612243565b905080341015610d85576040517f08c379a000000000000000000000000000000000000000000000000000000000815260206004820152601d60248201527f496e746572616374696f6e3a20696e73756666696369656e74206665650000006044820152606401610911565b5f8585604051610d96929190612234565b60405190819003902060045490915074010000000000000000000000000000000000000000900460ff1615610e3c575f8181526005602052604090205460ff16610e3c576040517f08c379a000000000000000000000000000000000000000000000000000000000815260206004820152601f60248201527f496e746572616374696f6e3a20616374696f6e206e6f7420616c6c6f776564006044820152606401610911565b7f000000000000000000000000000000000000000000000000000000000000000073ffffffffffffffffffffffffffffffffffffffff1663fada5da1346040518263ffffffff1660e01b81526004015f604051808303818588803b158015610ea2575f80fd5b505af1158015610eb4573d5f803e3d5ffd5b5050505050803373ffffffffffffffffffffffffffffffffffffffff167fd149b38bdc70b4650d7f0d5cb5e82886629c6e870cf1bc848bab4df6f8f8ee318888888842604051610f089594939291906122a1565b60405180910390a350506109f96001600255565b610f24611a73565b5f8383604051610f35929190612234565b604080519182900382205f81815260066020908152929020859055848352925082917f1a62b9d0f2073ac4dda8d83f526e24039839bf1e57326ffbfcc6ffe8f2eae7079101610c75565b5f5473ffffffffffffffffffffffffffffffffffffffff163314801590610fc35750600854610100900473ffffffffffffffffffffffffffffffffffffffff163314155b15611050576040517f08c379a000000000000000000000000000000000000000000000000000000000815260206004820152603c60248201527f496e746572616374696f6e3a2063616c6c6572206973206e6f7420746865206f60448201527f776e6572206f72207472757374656420626f6f747374726170706572000000006064820152608401610911565b60085460ff16156110e3576040517f08c379a000000000000000000000000000000000000000000000000000000000815260206004820152602c60248201527f496e746572616374696f6e3a20676f7665726e616e6365206d6f646520616c7260448201527f6561647920656e61626c656400000000000000000000000000000000000000006064820152608401610911565b73ffffffffffffffffffffffffffffffffffffffff8216611186576040517f08c379a000000000000000000000000000000000000000000000000000000000815260206004820152602960248201527f496e746572616374696f6e3a2061646d696e2063616e6e6f74206265207a657260448201527f6f206164647265737300000000000000000000000000000000000000000000006064820152608401610911565b73ffffffffffffffffffffffffffffffffffffffff8116611229576040517f08c379a000000000000000000000000000000000000000000000000000000000815260206004820152602f60248201527f496e746572616374696f6e3a20706172616d5365747465722063616e6e6f742060448201527f6265207a65726f206164647265737300000000000000000000000000000000006064820152608401610911565b600880547fffffffffffffffffffffffffffffffffffffffffffffffffffffffffffffff0016600117905561125e5f83611bea565b506112897f597b121aab77e221e6a68f35bfe5cd0100f93845c4f871f403c8b3592a44ea0382611bea565b506112b15f6112ac5f5473ffffffffffffffffffffffffffffffffffffffff1690565b611cb2565b506112bb82611dc1565b8073ffffffffffffffffffffffffffffffffffffffff168273ffffffffffffffffffffffffffffffffffffffff167f636eebd3fa636d132c0642257636a03b90019c563c593d3c831318f9f3a7442960405160405180910390a35050565b611321611e35565b60035473ffffffffffffffffffffffffffffffffffffffff166113a0576040517f08c379a000000000000000000000000000000000000000000000000000000000815260206004820152601e60248201527f496e746572616374696f6e3a2041494f20746f6b656e206e6f742073657400006044820152606401610911565b60045473ffffffffffffffffffffffffffffffffffffffff16611444576040517f08c379a0000000000000000000000000000000000000000000000000000000008152602060048201526024808201527f496e746572616374696f6e3a2041494f2072657761726420706f6f6c206e6f7460448201527f20736574000000000000000000000000000000000000000000000000000000006064820152608401610911565b5f8383604051611455929190612234565b60408051918290039091205f81815260066020529182205490925090819003611500576040517f08c379a000000000000000000000000000000000000000000000000000000000815260206004820152603160248201527f496e746572616374696f6e3a206e6f2072657761726420636f6e66696775726560448201527f6420666f72207468697320616374696f6e0000000000000000000000000000006064820152608401610911565b335f908152600760209081526040808320858452825280832086845290915290205460ff161561158c576040517f08c379a000000000000000000000000000000000000000000000000000000000815260206004820152601c60248201527f496e746572616374696f6e3a20616c726561647920636c61696d6564000000006044820152606401610911565b335f818152600760209081526040808320868452825280832087845290915280822080547fffffffffffffffffffffffffffffffffffffffffffffffffffffffffffffff001660011790556003546004805492517f23b872dd00000000000000000000000000000000000000000000000000000000815273ffffffffffffffffffffffffffffffffffffffff9384169181019190915260248101949094526044840185905291929116906323b872dd906064016020604051808303815f875af115801561165b573d5f803e3d5ffd5b505050506040513d601f19601f8201168201806040525081019061167f91906122da565b9050806116e8576040517f08c379a000000000000000000000000000000000000000000000000000000000815260206004820181905260248201527f496e746572616374696f6e3a2041494f207472616e73666572206661696c65646044820152606401610911565b823373ffffffffffffffffffffffffffffffffffffffff167f66919640c37c2ef754926b471d0f8fb6168224dc95e2bb1def75d2c6081866108888868960405161173594939291906122f5565b60405180910390a3505050610a586001600255565b5f805f805f7f000000000000000000000000000000000000000000000000000000000000000073ffffffffffffffffffffffffffffffffffffffff1663428c090b6040518163ffffffff1660e01b8152600401602060405180830381865afa1580156117b8573d5f803e3d5ffd5b505050506040513d601f19601f820116820180604052508101906117dc9190612243565b60045460035491977f0000000000000000000000000000000000000000000000000000000000000000975074010000000000000000000000000000000000000000820460ff16965073ffffffffffffffffffffffffffffffffffffffff9283169550911692509050565b61184e611a73565b73ffffffffffffffffffffffffffffffffffffffff81166118f1576040517f08c379a000000000000000000000000000000000000000000000000000000000815260206004820152602c60248201527f496e746572616374696f6e3a2061696f546f6b656e2063616e6e6f742062652060448201527f7a65726f206164647265737300000000000000000000000000000000000000006064820152608401610911565b600380547fffffffffffffffffffffffff00000000000000000000000000000000000000001673ffffffffffffffffffffffffffffffffffffffff83169081179091556040517fe0f62c0df26f96720b98083226f174ead8075d99c368ef677f1438ef3fc00457905f90a250565b5f828152600160208190526040909120015461197a81611be0565b6109f98383611cb2565b61198c611a73565b6004805482151574010000000000000000000000000000000000000000027fffffffffffffffffffffff00ffffffffffffffffffffffffffffffffffffffff9091161790556040517f66538806474f0d93f78ec4085a1d343732ef04874ebdcb6608a2841f4a83738a90611a0590831515815260200190565b60405180910390a150565b611a18611d6f565b73ffffffffffffffffffffffffffffffffffffffff8116611a67576040517f1e4fbdf70000000000000000000000000000000000000000000000000000000081525f6004820152602401610911565b611a7081611dc1565b50565b60085460ff1615611b3b57335f9081527fdb2d0a3dd5f1671095ae85310ffbb7cc5134b90daea1d7ba34d87ef2c0dd73dc602052604090205460ff16610b7b576040517f08c379a000000000000000000000000000000000000000000000000000000000815260206004820152603360248201527f496e746572616374696f6e3a2063616c6c657220646f6573206e6f742068617660448201527f6520504152414d5f5345545445525f524f4c45000000000000000000000000006064820152608401610911565b5f5473ffffffffffffffffffffffffffffffffffffffff163314610b7b576040517f08c379a0000000000000000000000000000000000000000000000000000000008152602060048201526024808201527f496e746572616374696f6e3a2063616c6c6572206973206e6f7420746865206f60448201527f776e6572000000000000000000000000000000000000000000000000000000006064820152608401610911565b611a708133611e76565b5f82815260016020908152604080832073ffffffffffffffffffffffffffffffffffffffff8516845290915281205460ff16611cab575f83815260016020818152604080842073ffffffffffffffffffffffffffffffffffffffff8716808652925280842080547fffffffffffffffffffffffffffffffffffffffffffffffffffffffffffffff00169093179092559051339286917f2f8788117e7eff1d82e926ec794901d17c78024a50270940304540a733656f0d9190a45060016107e7565b505f6107e7565b5f82815260016020908152604080832073ffffffffffffffffffffffffffffffffffffffff8516845290915281205460ff1615611cab575f83815260016020908152604080832073ffffffffffffffffffffffffffffffffffffffff8616808552925280832080547fffffffffffffffffffffffffffffffffffffffffffffffffffffffffffffff0016905551339286917ff6391f5c32d9c69d2a47ea670b442974b53935d1edc7fd64eb21e047a839171b9190a45060016107e7565b5f5473ffffffffffffffffffffffffffffffffffffffff163314610b7b576040517f118cdaa7000000000000000000000000000000000000000000000000000000008152336004820152602401610911565b5f805473ffffffffffffffffffffffffffffffffffffffff8381167fffffffffffffffffffffffff0000000000000000000000000000000000000000831681178455604051919092169283917f8be0079c531659141344cd1fd0a4f28419497f9722a3daafe3b4186f6b6457e09190a35050565b6002805403611e70576040517f3ee5aeb500000000000000000000000000000000000000000000000000000000815260040160405180910390fd5b60028055565b5f82815260016020908152604080832073ffffffffffffffffffffffffffffffffffffffff8516845290915290205460ff16611efd576040517fe2517d3f00000000000000000000000000000000000000000000000000000000815273ffffffffffffffffffffffffffffffffffffffff8216600482015260248101839052604401610911565b5050565b5f60208284031215611f11575f80fd5b81357fffffffff0000000000000000000000000000000000000000000000000000000081168114611f40575f80fd5b9392505050565b5f60208284031215611f57575f80fd5b5035919050565b8015158114611a70575f80fd5b5f8060408385031215611f7c575f80fd5b823591506020830135611f8e81611f5e565b809150509250929050565b803573ffffffffffffffffffffffffffffffffffffffff81168114611fbc575f80fd5b919050565b5f60208284031215611fd1575f80fd5b611f4082611f99565b5f8060408385031215611feb575f80fd5b50508035926020909101359150565b5f806040838503121561200b575f80fd5b8235915061201b60208401611f99565b90509250929050565b5f8083601f840112612034575f80fd5b50813567ffffffffffffffff81111561204b575f80fd5b602083019150836020828501011115612062575f80fd5b9250929050565b5f805f806060858703121561207c575f80fd5b61208585611f99565b9350602085013567ffffffffffffffff8111156120a0575f80fd5b6120ac87828801612024565b9598909750949560400135949350505050565b5f805f604084860312156120d1575f80fd5b833567ffffffffffffffff8111156120e7575f80fd5b6120f386828701612024565b909450925050602084013561210781611f5e565b809150509250925092565b5f805f8060408587031215612125575f80fd5b843567ffffffffffffffff8082111561213c575f80fd5b61214888838901612024565b90965094506020870135915080821115612160575f80fd5b5061216d87828801612024565b95989497509550505050565b5f805f6040848603121561218b575f80fd5b833567ffffffffffffffff8111156121a1575f80fd5b6121ad86828701612024565b909790965060209590950135949350505050565b5f80604083850312156121d2575f80fd5b6121db83611f99565b915061201b60208401611f99565b5f602082840312156121f9575f80fd5b8135611f4081611f5e565b5f805f60608486031215612216575f80fd5b61221f84611f99565b95602085013595506040909401359392505050565b818382375f9101908152919050565b5f60208284031215612253575f80fd5b5051919050565b81835281816020850137505f602082840101525f60207fffffffffffffffffffffffffffffffffffffffffffffffffffffffffffffffe0601f840116840101905092915050565b606081525f6122b460608301878961225a565b82810360208401526122c781868861225a565b9150508260408301529695505050505050565b5f602082840312156122ea575f80fd5b8151611f4081611f5e565b606081525f61230860608301868861225a565b602083019490945250604001529291505056fea2646970667358221220f47d56939a2a410e57a3edd1fd7db89311617f9a667aa661c3ddf826ceccb7cd64736f6c63430008180033","linkReferences":{}},"methodIdentifiers":{"DEFAULT_ADMIN_ROLE()":"a217fddf","PARAM_SETTER_ROLE()":"91b7cd58","actionAllowlist(bytes32)":"c4741b2e","actionReward(bytes32)":"0f4e0109","aioRewardPool()":"78aedfc8","aioToken()":"9917d8f8","allowlistEnabled()":"94c8e4ff","claimAIO(string,uint256)":"bbb59677","claimedInteractions(address,bytes32,uint256)":"e4f29ef6","enableGovernanceMode(address,address)":"b50a9da8","feeDistributor()":"0d43e8ad","getClaimStatus(address,string,uint256)":"8ea67538","getConfig()":"c3f909d4","getRoleAdmin(bytes32)":"248a9ca3","governanceModeEnabled()":"bc52900b","grantRole(bytes32,address)":"2f2ff15d","hasRole(bytes32,address)":"91d14854","interact(string,bytes)":"aac3ebc0","owner()":"8da5cb5b","renounceOwnership()":"715018a6","renounceRole(bytes32,address)":"36568abe","revokeRole(bytes32,address)":"d547741f","setAIORewardPool(address)":"2811c2bb","setAIOToken(address)":"d4059cb5","setActionAllowlist(bytes32,bool)":"23663609","setActionAllowlistByString(string,bool)":"93fd7c2a","setActionReward(bytes32,uint256)":"2ac53124","setActionRewardByString(string,uint256)":"aadb209d","setAllowlistEnabled(bool)":"d7644ba2","setTrustedBootstrapper(address)":"65fa88ec","supportsInterface(bytes4)":"01ffc9a7","transferOwnership(address)":"f2fde38b","trustedBootstrapper()":"23b32bf3"},"id":55}